{
    "_format": "hh-sol-artifact-1",
    "contractName": "CMGallery",
    "sourceName": "contracts/CMGallery.sol",
    "abi": [
        {
            "inputs": [],
            "stateMutability": "nonpayable",
            "type": "constructor"
        },
        {
            "anonymous": false,
            "inputs": [
                {
                    "indexed": true,
                    "internalType": "address",
                    "name": "owner",
                    "type": "address"
                },
                {
                    "indexed": true,
                    "internalType": "address",
                    "name": "approved",
                    "type": "address"
                },
                {
                    "indexed": true,
                    "internalType": "uint256",
                    "name": "tokenId",
                    "type": "uint256"
                }
            ],
            "name": "Approval",
            "type": "event"
        },
        {
            "anonymous": false,
            "inputs": [
                {
                    "indexed": true,
                    "internalType": "address",
                    "name": "owner",
                    "type": "address"
                },
                {
                    "indexed": true,
                    "internalType": "address",
                    "name": "operator",
                    "type": "address"
                },
                {
                    "indexed": false,
                    "internalType": "bool",
                    "name": "approved",
                    "type": "bool"
                }
            ],
            "name": "ApprovalForAll",
            "type": "event"
        },
        {
            "anonymous": false,
            "inputs": [
                {
                    "indexed": true,
                    "internalType": "address",
                    "name": "previousOwner",
                    "type": "address"
                },
                {
                    "indexed": true,
                    "internalType": "address",
                    "name": "newOwner",
                    "type": "address"
                }
            ],
            "name": "OwnershipTransferred",
            "type": "event"
        },
        {
            "anonymous": false,
            "inputs": [
                {
                    "indexed": true,
                    "internalType": "address",
                    "name": "from",
                    "type": "address"
                },
                {
                    "indexed": true,
                    "internalType": "address",
                    "name": "to",
                    "type": "address"
                },
                {
                    "indexed": true,
                    "internalType": "uint256",
                    "name": "tokenId",
                    "type": "uint256"
                }
            ],
            "name": "Transfer",
            "type": "event"
        },
        {
            "inputs": [],
            "name": "MAX_SUPPLY",
            "outputs": [
                {
                    "internalType": "uint256",
                    "name": "",
                    "type": "uint256"
                }
            ],
            "stateMutability": "view",
            "type": "function"
        },
        {
            "inputs": [
                {
                    "internalType": "address",
                    "name": "to",
                    "type": "address"
                },
                {
                    "internalType": "uint256",
                    "name": "tokenId",
                    "type": "uint256"
                }
            ],
            "name": "approve",
            "outputs": [],
            "stateMutability": "nonpayable",
            "type": "function"
        },
        {
            "inputs": [
                {
                    "internalType": "address",
                    "name": "owner",
                    "type": "address"
                }
            ],
            "name": "balanceOf",
            "outputs": [
                {
                    "internalType": "uint256",
                    "name": "",
                    "type": "uint256"
                }
            ],
            "stateMutability": "view",
            "type": "function"
        },
        {
            "inputs": [
                {
                    "internalType": "uint256",
                    "name": "tokenId",
                    "type": "uint256"
                }
            ],
            "name": "getApproved",
            "outputs": [
                {
                    "internalType": "address",
                    "name": "",
                    "type": "address"
                }
            ],
            "stateMutability": "view",
            "type": "function"
        },
        {
            "inputs": [
                {
                    "internalType": "address",
                    "name": "owner",
                    "type": "address"
                },
                {
                    "internalType": "address",
                    "name": "operator",
                    "type": "address"
                }
            ],
            "name": "isApprovedForAll",
            "outputs": [
                {
                    "internalType": "bool",
                    "name": "",
                    "type": "bool"
                }
            ],
            "stateMutability": "view",
            "type": "function"
        },
        {
            "inputs": [],
            "name": "mintRate",
            "outputs": [
                {
                    "internalType": "uint256",
                    "name": "",
                    "type": "uint256"
                }
            ],
            "stateMutability": "view",
            "type": "function"
        },
        {
            "inputs": [],
            "name": "name",
            "outputs": [
                {
                    "internalType": "string",
                    "name": "",
                    "type": "string"
                }
            ],
            "stateMutability": "view",
            "type": "function"
        },
        {
            "inputs": [],
            "name": "owner",
            "outputs": [
                {
                    "internalType": "address",
                    "name": "",
                    "type": "address"
                }
            ],
            "stateMutability": "view",
            "type": "function"
        },
        {
            "inputs": [
                {
                    "internalType": "uint256",
                    "name": "tokenId",
                    "type": "uint256"
                }
            ],
            "name": "ownerOf",
            "outputs": [
                {
                    "internalType": "address",
                    "name": "",
                    "type": "address"
                }
            ],
            "stateMutability": "view",
            "type": "function"
        },
        {
            "inputs": [],
            "name": "renounceOwnership",
            "outputs": [],
            "stateMutability": "nonpayable",
            "type": "function"
        },
        {
            "inputs": [
                {
                    "internalType": "address",
                    "name": "to",
                    "type": "address"
                },
                {
                    "internalType": "string",
                    "name": "uri",
                    "type": "string"
                }
            ],
            "name": "safeMint",
            "outputs": [],
            "stateMutability": "payable",
            "type": "function"
        },
        {
            "inputs": [
                {
                    "internalType": "address",
                    "name": "from",
                    "type": "address"
                },
                {
                    "internalType": "address",
                    "name": "to",
                    "type": "address"
                },
                {
                    "internalType": "uint256",
                    "name": "tokenId",
                    "type": "uint256"
                }
            ],
            "name": "safeTransferFrom",
            "outputs": [],
            "stateMutability": "nonpayable",
            "type": "function"
        },
        {
            "inputs": [
                {
                    "internalType": "address",
                    "name": "from",
                    "type": "address"
                },
                {
                    "internalType": "address",
                    "name": "to",
                    "type": "address"
                },
                {
                    "internalType": "uint256",
                    "name": "tokenId",
                    "type": "uint256"
                },
                {
                    "internalType": "bytes",
                    "name": "_data",
                    "type": "bytes"
                }
            ],
            "name": "safeTransferFrom",
            "outputs": [],
            "stateMutability": "nonpayable",
            "type": "function"
        },
        {
            "inputs": [
                {
                    "internalType": "address",
                    "name": "operator",
                    "type": "address"
                },
                {
                    "internalType": "bool",
                    "name": "approved",
                    "type": "bool"
                }
            ],
            "name": "setApprovalForAll",
            "outputs": [],
            "stateMutability": "nonpayable",
            "type": "function"
        },
        {
            "inputs": [
                {
                    "internalType": "bytes4",
                    "name": "interfaceId",
                    "type": "bytes4"
                }
            ],
            "name": "supportsInterface",
            "outputs": [
                {
                    "internalType": "bool",
                    "name": "",
                    "type": "bool"
                }
            ],
            "stateMutability": "view",
            "type": "function"
        },
        {
            "inputs": [],
            "name": "symbol",
            "outputs": [
                {
                    "internalType": "string",
                    "name": "",
                    "type": "string"
                }
            ],
            "stateMutability": "view",
            "type": "function"
        },
        {
            "inputs": [
                {
                    "internalType": "uint256",
                    "name": "index",
                    "type": "uint256"
                }
            ],
            "name": "tokenByIndex",
            "outputs": [
                {
                    "internalType": "uint256",
                    "name": "",
                    "type": "uint256"
                }
            ],
            "stateMutability": "view",
            "type": "function"
        },
        {
            "inputs": [
                {
                    "internalType": "address",
                    "name": "owner",
                    "type": "address"
                },
                {
                    "internalType": "uint256",
                    "name": "index",
                    "type": "uint256"
                }
            ],
            "name": "tokenOfOwnerByIndex",
            "outputs": [
                {
                    "internalType": "uint256",
                    "name": "",
                    "type": "uint256"
                }
            ],
            "stateMutability": "view",
            "type": "function"
        },
        {
            "inputs": [
                {
                    "internalType": "uint256",
                    "name": "tokenId",
                    "type": "uint256"
                }
            ],
            "name": "tokenURI",
            "outputs": [
                {
                    "internalType": "string",
                    "name": "",
                    "type": "string"
                }
            ],
            "stateMutability": "view",
            "type": "function"
        },
        {
            "inputs": [],
            "name": "totalSupply",
            "outputs": [
                {
                    "internalType": "uint256",
                    "name": "",
                    "type": "uint256"
                }
            ],
            "stateMutability": "view",
            "type": "function"
        },
        {
            "inputs": [
                {
                    "internalType": "address",
                    "name": "from",
                    "type": "address"
                },
                {
                    "internalType": "address",
                    "name": "to",
                    "type": "address"
                },
                {
                    "internalType": "uint256",
                    "name": "tokenId",
                    "type": "uint256"
                }
            ],
            "name": "transferFrom",
            "outputs": [],
            "stateMutability": "nonpayable",
            "type": "function"
        },
        {
            "inputs": [
                {
                    "internalType": "address",
                    "name": "newOwner",
                    "type": "address"
                }
            ],
            "name": "transferOwnership",
            "outputs": [],
            "stateMutability": "nonpayable",
            "type": "function"
        },
        {
            "inputs": [],
            "name": "withdraw",
            "outputs": [],
            "stateMutability": "nonpayable",
            "type": "function"
        }
    ],
    "bytecode": "0x6080604052662386f26fc10000600d55612710600e553480156200002257600080fd5b506040518060400160405280600981526020017f434d47616c6c65727900000000000000000000000000000000000000000000008152506040518060400160405280600381526020017f434d4700000000000000000000000000000000000000000000000000000000008152508160009080519060200190620000a7929190620001b7565b508060019080519060200190620000c0929190620001b7565b505050620000e3620000d7620000e960201b60201c565b620000f160201b60201c565b620002cc565b600033905090565b6000600b60009054906101000a900473ffffffffffffffffffffffffffffffffffffffff16905081600b60006101000a81548173ffffffffffffffffffffffffffffffffffffffff021916908373ffffffffffffffffffffffffffffffffffffffff1602179055508173ffffffffffffffffffffffffffffffffffffffff168173ffffffffffffffffffffffffffffffffffffffff167f8be0079c531659141344cd1fd0a4f28419497f9722a3daafe3b4186f6b6457e060405160405180910390a35050565b828054620001c59062000267565b90600052602060002090601f016020900481019282620001e9576000855562000235565b82601f106200020457805160ff191683800117855562000235565b8280016001018555821562000235579182015b828111156200023457825182559160200191906001019062000217565b5b50905062000244919062000248565b5090565b5b808211156200026357600081600090555060010162000249565b5090565b600060028204905060018216806200028057607f821691505b602082108114156200029757620002966200029d565b5b50919050565b7f4e487b7100000000000000000000000000000000000000000000000000000000600052602260045260246000fd5b613c9e80620002dc6000396000f3fe6080604052600436106101405760003560e01c80636352211e116100b6578063b88d4fde1161006f578063b88d4fde1461045c578063c87b56dd14610485578063ca0dcf16146104c2578063d204c45e146104ed578063e985e9c514610509578063f2fde38b1461054657610140565b80636352211e1461034c57806370a0823114610389578063715018a6146103c65780638da5cb5b146103dd57806395d89b4114610408578063a22cb4651461043357610140565b806323b872dd1161010857806323b872dd1461023e5780632f745c591461026757806332cb6b0c146102a45780633ccfd60b146102cf57806342842e0e146102e65780634f6ccce71461030f57610140565b806301ffc9a71461014557806306fdde0314610182578063081812fc146101ad578063095ea7b3146101ea57806318160ddd14610213575b600080fd5b34801561015157600080fd5b5061016c600480360381019061016791906129bf565b61056f565b6040516101799190612eba565b60405180910390f35b34801561018e57600080fd5b50610197610581565b6040516101a49190612ed5565b60405180910390f35b3480156101b957600080fd5b506101d460048036038101906101cf9190612a11565b610613565b6040516101e19190612e53565b60405180910390f35b3480156101f657600080fd5b50610211600480360381019061020c9190612983565b610698565b005b34801561021f57600080fd5b506102286107b0565b60405161023591906131d7565b60405180910390f35b34801561024a57600080fd5b5061026560048036038101906102609190612829565b6107bd565b005b34801561027357600080fd5b5061028e60048036038101906102899190612983565b61081d565b60405161029b91906131d7565b60405180910390f35b3480156102b057600080fd5b506102b96108c2565b6040516102c691906131d7565b60405180910390f35b3480156102db57600080fd5b506102e46108c8565b005b3480156102f257600080fd5b5061030d60048036038101906103089190612829565b6109d7565b005b34801561031b57600080fd5b5061033660048036038101906103319190612a11565b6109f7565b60405161034391906131d7565b60405180910390f35b34801561035857600080fd5b50610373600480360381019061036e9190612a11565b610a8e565b6040516103809190612e53565b60405180910390f35b34801561039557600080fd5b506103b060048036038101906103ab91906127c4565b610b40565b6040516103bd91906131d7565b60405180910390f35b3480156103d257600080fd5b506103db610bf8565b005b3480156103e957600080fd5b506103f2610c80565b6040516103ff9190612e53565b60405180910390f35b34801561041457600080fd5b5061041d610caa565b60405161042a9190612ed5565b60405180910390f35b34801561043f57600080fd5b5061045a600480360381019061045591906128f3565b610d3c565b005b34801561046857600080fd5b50610483600480360381019061047e9190612878565b610d52565b005b34801561049157600080fd5b506104ac60048036038101906104a79190612a11565b610db4565b6040516104b99190612ed5565b60405180910390f35b3480156104ce57600080fd5b506104d7610dc6565b6040516104e491906131d7565b60405180910390f35b6105076004803603810190610502919061292f565b610dcc565b005b34801561051557600080fd5b50610530600480360381019061052b91906127ed565b610e8d565b60405161053d9190612eba565b60405180910390f35b34801561055257600080fd5b5061056d600480360381019061056891906127c4565b610f21565b005b600061057a82611019565b9050919050565b6060600080546105909061342d565b80601f01602080910402602001604051908101604052809291908181526020018280546105bc9061342d565b80156106095780601f106105de57610100808354040283529160200191610609565b820191906000526020600020905b8154815290600101906020018083116105ec57829003601f168201915b5050505050905090565b600061061e82611093565b61065d576040517f08c379a0000000000000000000000000000000000000000000000000000000008152600401610654906130f7565b60405180910390fd5b6004600083815260200190815260200160002060009054906101000a900473ffffffffffffffffffffffffffffffffffffffff169050919050565b60006106a382610a8e565b90508073ffffffffffffffffffffffffffffffffffffffff168373ffffffffffffffffffffffffffffffffffffffff161415610714576040517f08c379a000000000000000000000000000000000000000000000000000000000815260040161070b90613157565b60405180910390fd5b8073ffffffffffffffffffffffffffffffffffffffff166107336110ff565b73ffffffffffffffffffffffffffffffffffffffff16148061076257506107618161075c6110ff565b610e8d565b5b6107a1576040517f08c379a000000000000000000000000000000000000000000000000000000000815260040161079890612ff7565b60405180910390fd5b6107ab8383611107565b505050565b6000600880549050905090565b6107ce6107c86110ff565b826111c0565b61080d576040517f08c379a000000000000000000000000000000000000000000000000000000000815260040161080490613197565b60405180910390fd5b61081883838361129e565b505050565b600061082883610b40565b8210610869576040517f08c379a000000000000000000000000000000000000000000000000000000000815260040161086090612ef7565b60405180910390fd5b600660008473ffffffffffffffffffffffffffffffffffffffff1673ffffffffffffffffffffffffffffffffffffffff168152602001908152602001600020600083815260200190815260200160002054905092915050565b600e5481565b6108d06110ff565b73ffffffffffffffffffffffffffffffffffffffff166108ee610c80565b73ffffffffffffffffffffffffffffffffffffffff1614610944576040517f08c379a000000000000000000000000000000000000000000000000000000000815260040161093b90613117565b60405180910390fd5b60004711610987576040517f08c379a000000000000000000000000000000000000000000000000000000000815260040161097e906130d7565b60405180910390fd5b61098f610c80565b73ffffffffffffffffffffffffffffffffffffffff166108fc479081150290604051600060405180830381858888f193505050501580156109d4573d6000803e3d6000fd5b50565b6109f283838360405180602001604052806000815250610d52565b505050565b6000610a016107b0565b8210610a42576040517f08c379a0000000000000000000000000000000000000000000000000000000008152600401610a39906131b7565b60405180910390fd5b60088281548110610a7c577f4e487b7100000000000000000000000000000000000000000000000000000000600052603260045260246000fd5b90600052602060002001549050919050565b6000806002600084815260200190815260200160002060009054906101000a900473ffffffffffffffffffffffffffffffffffffffff169050600073ffffffffffffffffffffffffffffffffffffffff168173ffffffffffffffffffffffffffffffffffffffff161415610b37576040517f08c379a0000000000000000000000000000000000000000000000000000000008152600401610b2e90613037565b60405180910390fd5b80915050919050565b60008073ffffffffffffffffffffffffffffffffffffffff168273ffffffffffffffffffffffffffffffffffffffff161415610bb1576040517f08c379a0000000000000000000000000000000000000000000000000000000008152600401610ba890613017565b60405180910390fd5b600360008373ffffffffffffffffffffffffffffffffffffffff1673ffffffffffffffffffffffffffffffffffffffff168152602001908152602001600020549050919050565b610c006110ff565b73ffffffffffffffffffffffffffffffffffffffff16610c1e610c80565b73ffffffffffffffffffffffffffffffffffffffff1614610c74576040517f08c379a0000000000000000000000000000000000000000000000000000000008152600401610c6b90613117565b60405180910390fd5b610c7e6000611505565b565b6000600b60009054906101000a900473ffffffffffffffffffffffffffffffffffffffff16905090565b606060018054610cb99061342d565b80601f0160208091040260200160405190810160405280929190818152602001828054610ce59061342d565b8015610d325780601f10610d0757610100808354040283529160200191610d32565b820191906000526020600020905b815481529060010190602001808311610d1557829003601f168201915b5050505050905090565b610d4e610d476110ff565b83836115cb565b5050565b610d63610d5d6110ff565b836111c0565b610da2576040517f08c379a0000000000000000000000000000000000000000000000000000000008152600401610d9990613197565b60405180910390fd5b610dae84848484611738565b50505050565b6060610dbf82611794565b9050919050565b600d5481565b600e54610dd76107b0565b10610e17576040517f08c379a0000000000000000000000000000000000000000000000000000000008152600401610e0e90613097565b60405180910390fd5b600d54341015610e5c576040517f08c379a0000000000000000000000000000000000000000000000000000000008152600401610e5390613177565b60405180910390fd5b6000610e68600c6118e6565b9050610e74600c6118f4565b610e7e838261190a565b610e888183611928565b505050565b6000600560008473ffffffffffffffffffffffffffffffffffffffff1673ffffffffffffffffffffffffffffffffffffffff16815260200190815260200160002060008373ffffffffffffffffffffffffffffffffffffffff1673ffffffffffffffffffffffffffffffffffffffff16815260200190815260200160002060009054906101000a900460ff16905092915050565b610f296110ff565b73ffffffffffffffffffffffffffffffffffffffff16610f47610c80565b73ffffffffffffffffffffffffffffffffffffffff1614610f9d576040517f08c379a0000000000000000000000000000000000000000000000000000000008152600401610f9490613117565b60405180910390fd5b600073ffffffffffffffffffffffffffffffffffffffff168173ffffffffffffffffffffffffffffffffffffffff16141561100d576040517f08c379a000000000000000000000000000000000000000000000000000000000815260040161100490612f37565b60405180910390fd5b61101681611505565b50565b60007f780e9d63000000000000000000000000000000000000000000000000000000007bffffffffffffffffffffffffffffffffffffffffffffffffffffffff1916827bffffffffffffffffffffffffffffffffffffffffffffffffffffffff1916148061108c575061108b8261199c565b5b9050919050565b60008073ffffffffffffffffffffffffffffffffffffffff166002600084815260200190815260200160002060009054906101000a900473ffffffffffffffffffffffffffffffffffffffff1673ffffffffffffffffffffffffffffffffffffffff1614159050919050565b600033905090565b816004600083815260200190815260200160002060006101000a81548173ffffffffffffffffffffffffffffffffffffffff021916908373ffffffffffffffffffffffffffffffffffffffff160217905550808273ffffffffffffffffffffffffffffffffffffffff1661117a83610a8e565b73ffffffffffffffffffffffffffffffffffffffff167f8c5be1e5ebec7d5bd14f71427d1e84f3dd0314c0f7b2291e5b200ac8c7c3b92560405160405180910390a45050565b60006111cb82611093565b61120a576040517f08c379a000000000000000000000000000000000000000000000000000000000815260040161120190612fd7565b60405180910390fd5b600061121583610a8e565b90508073ffffffffffffffffffffffffffffffffffffffff168473ffffffffffffffffffffffffffffffffffffffff16148061128457508373ffffffffffffffffffffffffffffffffffffffff1661126c84610613565b73ffffffffffffffffffffffffffffffffffffffff16145b8061129557506112948185610e8d565b5b91505092915050565b8273ffffffffffffffffffffffffffffffffffffffff166112be82610a8e565b73ffffffffffffffffffffffffffffffffffffffff1614611314576040517f08c379a000000000000000000000000000000000000000000000000000000000815260040161130b90612f57565b60405180910390fd5b600073ffffffffffffffffffffffffffffffffffffffff168273ffffffffffffffffffffffffffffffffffffffff161415611384576040517f08c379a000000000000000000000000000000000000000000000000000000000815260040161137b90612f97565b60405180910390fd5b61138f838383611a7e565b61139a600082611107565b6001600360008573ffffffffffffffffffffffffffffffffffffffff1673ffffffffffffffffffffffffffffffffffffffff16815260200190815260200160002060008282546113ea9190613343565b925050819055506001600360008473ffffffffffffffffffffffffffffffffffffffff1673ffffffffffffffffffffffffffffffffffffffff168152602001908152602001600020600082825461144191906132bc565b92505081905550816002600083815260200190815260200160002060006101000a81548173ffffffffffffffffffffffffffffffffffffffff021916908373ffffffffffffffffffffffffffffffffffffffff160217905550808273ffffffffffffffffffffffffffffffffffffffff168473ffffffffffffffffffffffffffffffffffffffff167fddf252ad1be2c89b69c2b068fc378daa952ba7f163c4a11628f55a4df523b3ef60405160405180910390a4611500838383611a8e565b505050565b6000600b60009054906101000a900473ffffffffffffffffffffffffffffffffffffffff16905081600b60006101000a81548173ffffffffffffffffffffffffffffffffffffffff021916908373ffffffffffffffffffffffffffffffffffffffff1602179055508173ffffffffffffffffffffffffffffffffffffffff168173ffffffffffffffffffffffffffffffffffffffff167f8be0079c531659141344cd1fd0a4f28419497f9722a3daafe3b4186f6b6457e060405160405180910390a35050565b8173ffffffffffffffffffffffffffffffffffffffff168373ffffffffffffffffffffffffffffffffffffffff16141561163a576040517f08c379a000000000000000000000000000000000000000000000000000000000815260040161163190612fb7565b60405180910390fd5b80600560008573ffffffffffffffffffffffffffffffffffffffff1673ffffffffffffffffffffffffffffffffffffffff16815260200190815260200160002060008473ffffffffffffffffffffffffffffffffffffffff1673ffffffffffffffffffffffffffffffffffffffff16815260200190815260200160002060006101000a81548160ff0219169083151502179055508173ffffffffffffffffffffffffffffffffffffffff168373ffffffffffffffffffffffffffffffffffffffff167f17307eab39ab6107e8899845ad3d59bd9653f200f220920489ca2b5937696c318360405161172b9190612eba565b60405180910390a3505050565b61174384848461129e565b61174f84848484611a93565b61178e576040517f08c379a000000000000000000000000000000000000000000000000000000000815260040161178590612f17565b60405180910390fd5b50505050565b606061179f82611093565b6117de576040517f08c379a00000000000000000000000000000000000000000000000000000000081526004016117d5906130b7565b60405180910390fd5b6000600a600084815260200190815260200160002080546117fe9061342d565b80601f016020809104026020016040519081016040528092919081815260200182805461182a9061342d565b80156118775780601f1061184c57610100808354040283529160200191611877565b820191906000526020600020905b81548152906001019060200180831161185a57829003601f168201915b505050505090506000611888611c2a565b905060008151141561189e5781925050506118e1565b6000825111156118d35780826040516020016118bb929190612e2f565b604051602081830303815290604052925050506118e1565b6118dc84611c41565b925050505b919050565b600081600001549050919050565b6001816000016000828254019250508190555050565b611924828260405180602001604052806000815250611ce8565b5050565b61193182611093565b611970576040517f08c379a000000000000000000000000000000000000000000000000000000000815260040161196790613057565b60405180910390fd5b80600a600084815260200190815260200160002090805190602001906119979291906125e8565b505050565b60007f80ac58cd000000000000000000000000000000000000000000000000000000007bffffffffffffffffffffffffffffffffffffffffffffffffffffffff1916827bffffffffffffffffffffffffffffffffffffffffffffffffffffffff19161480611a6757507f5b5e139f000000000000000000000000000000000000000000000000000000007bffffffffffffffffffffffffffffffffffffffffffffffffffffffff1916827bffffffffffffffffffffffffffffffffffffffffffffffffffffffff1916145b80611a775750611a7682611d43565b5b9050919050565b611a89838383611dad565b505050565b505050565b6000611ab48473ffffffffffffffffffffffffffffffffffffffff16611ec1565b15611c1d578373ffffffffffffffffffffffffffffffffffffffff1663150b7a02611add6110ff565b8786866040518563ffffffff1660e01b8152600401611aff9493929190612e6e565b602060405180830381600087803b158015611b1957600080fd5b505af1925050508015611b4a57506040513d601f19601f82011682018060405250810190611b4791906129e8565b60015b611bcd573d8060008114611b7a576040519150601f19603f3d011682016040523d82523d6000602084013e611b7f565b606091505b50600081511415611bc5576040517f08c379a0000000000000000000000000000000000000000000000000000000008152600401611bbc90612f17565b60405180910390fd5b805181602001fd5b63150b7a0260e01b7bffffffffffffffffffffffffffffffffffffffffffffffffffffffff1916817bffffffffffffffffffffffffffffffffffffffffffffffffffffffff191614915050611c22565b600190505b949350505050565b606060405180602001604052806000815250905090565b6060611c4c82611093565b611c8b576040517f08c379a0000000000000000000000000000000000000000000000000000000008152600401611c8290613137565b60405180910390fd5b6000611c95611c2a565b90506000815111611cb55760405180602001604052806000815250611ce0565b80611cbf84611ee4565b604051602001611cd0929190612e2f565b6040516020818303038152906040525b915050919050565b611cf28383612091565b611cff6000848484611a93565b611d3e576040517f08c379a0000000000000000000000000000000000000000000000000000000008152600401611d3590612f17565b60405180910390fd5b505050565b60007f01ffc9a7000000000000000000000000000000000000000000000000000000007bffffffffffffffffffffffffffffffffffffffffffffffffffffffff1916827bffffffffffffffffffffffffffffffffffffffffffffffffffffffff1916149050919050565b611db883838361226b565b600073ffffffffffffffffffffffffffffffffffffffff168373ffffffffffffffffffffffffffffffffffffffff161415611dfb57611df681612270565b611e3a565b8173ffffffffffffffffffffffffffffffffffffffff168373ffffffffffffffffffffffffffffffffffffffff1614611e3957611e3883826122b9565b5b5b600073ffffffffffffffffffffffffffffffffffffffff168273ffffffffffffffffffffffffffffffffffffffff161415611e7d57611e7881612426565b611ebc565b8273ffffffffffffffffffffffffffffffffffffffff168273ffffffffffffffffffffffffffffffffffffffff1614611ebb57611eba8282612569565b5b5b505050565b6000808273ffffffffffffffffffffffffffffffffffffffff163b119050919050565b60606000821415611f2c576040518060400160405280600181526020017f3000000000000000000000000000000000000000000000000000000000000000815250905061208c565b600082905060005b60008214611f5e578080611f4790613490565b915050600a82611f579190613312565b9150611f34565b60008167ffffffffffffffff811115611fa0577f4e487b7100000000000000000000000000000000000000000000000000000000600052604160045260246000fd5b6040519080825280601f01601f191660200182016040528015611fd25781602001600182028036833780820191505090505b5090505b6000851461208557600182611feb9190613343565b9150600a85611ffa91906134d9565b603061200691906132bc565b60f81b818381518110612042577f4e487b7100000000000000000000000000000000000000000000000000000000600052603260045260246000fd5b60200101907effffffffffffffffffffffffffffffffffffffffffffffffffffffffffffff1916908160001a905350600a8561207e9190613312565b9450611fd6565b8093505050505b919050565b600073ffffffffffffffffffffffffffffffffffffffff168273ffffffffffffffffffffffffffffffffffffffff161415612101576040517f08c379a00000000000000000000000000000000000000000000000000000000081526004016120f890613077565b60405180910390fd5b61210a81611093565b1561214a576040517f08c379a000000000000000000000000000000000000000000000000000000000815260040161214190612f77565b60405180910390fd5b61215660008383611a7e565b6001600360008473ffffffffffffffffffffffffffffffffffffffff1673ffffffffffffffffffffffffffffffffffffffff16815260200190815260200160002060008282546121a691906132bc565b92505081905550816002600083815260200190815260200160002060006101000a81548173ffffffffffffffffffffffffffffffffffffffff021916908373ffffffffffffffffffffffffffffffffffffffff160217905550808273ffffffffffffffffffffffffffffffffffffffff16600073ffffffffffffffffffffffffffffffffffffffff167fddf252ad1be2c89b69c2b068fc378daa952ba7f163c4a11628f55a4df523b3ef60405160405180910390a461226760008383611a8e565b5050565b505050565b6008805490506009600083815260200190815260200160002081905550600881908060018154018082558091505060019003906000526020600020016000909190919091505550565b600060016122c684610b40565b6122d09190613343565b90506000600760008481526020019081526020016000205490508181146123b5576000600660008673ffffffffffffffffffffffffffffffffffffffff1673ffffffffffffffffffffffffffffffffffffffff168152602001908152602001600020600084815260200190815260200160002054905080600660008773ffffffffffffffffffffffffffffffffffffffff1673ffffffffffffffffffffffffffffffffffffffff168152602001908152602001600020600084815260200190815260200160002081905550816007600083815260200190815260200160002081905550505b6007600084815260200190815260200160002060009055600660008573ffffffffffffffffffffffffffffffffffffffff1673ffffffffffffffffffffffffffffffffffffffff16815260200190815260200160002060008381526020019081526020016000206000905550505050565b6000600160088054905061243a9190613343565b9050600060096000848152602001908152602001600020549050600060088381548110612490577f4e487b7100000000000000000000000000000000000000000000000000000000600052603260045260246000fd5b9060005260206000200154905080600883815481106124d8577f4e487b7100000000000000000000000000000000000000000000000000000000600052603260045260246000fd5b90600052602060002001819055508160096000838152602001908152602001600020819055506009600085815260200190815260200160002060009055600880548061254d577f4e487b7100000000000000000000000000000000000000000000000000000000600052603160045260246000fd5b6001900381819060005260206000200160009055905550505050565b600061257483610b40565b905081600660008573ffffffffffffffffffffffffffffffffffffffff1673ffffffffffffffffffffffffffffffffffffffff168152602001908152602001600020600083815260200190815260200160002081905550806007600084815260200190815260200160002081905550505050565b8280546125f49061342d565b90600052602060002090601f016020900481019282612616576000855561265d565b82601f1061262f57805160ff191683800117855561265d565b8280016001018555821561265d579182015b8281111561265c578251825591602001919060010190612641565b5b50905061266a919061266e565b5090565b5b8082111561268757600081600090555060010161266f565b5090565b600061269e61269984613217565b6131f2565b9050828152602081018484840111156126b657600080fd5b6126c18482856133eb565b509392505050565b60006126dc6126d784613248565b6131f2565b9050828152602081018484840111156126f457600080fd5b6126ff8482856133eb565b509392505050565b60008135905061271681613c0c565b92915050565b60008135905061272b81613c23565b92915050565b60008135905061274081613c3a565b92915050565b60008151905061275581613c3a565b92915050565b600082601f83011261276c57600080fd5b813561277c84826020860161268b565b91505092915050565b600082601f83011261279657600080fd5b81356127a68482602086016126c9565b91505092915050565b6000813590506127be81613c51565b92915050565b6000602082840312156127d657600080fd5b60006127e484828501612707565b91505092915050565b6000806040838503121561280057600080fd5b600061280e85828601612707565b925050602061281f85828601612707565b9150509250929050565b60008060006060848603121561283e57600080fd5b600061284c86828701612707565b935050602061285d86828701612707565b925050604061286e868287016127af565b9150509250925092565b6000806000806080858703121561288e57600080fd5b600061289c87828801612707565b94505060206128ad87828801612707565b93505060406128be878288016127af565b925050606085013567ffffffffffffffff8111156128db57600080fd5b6128e78782880161275b565b91505092959194509250565b6000806040838503121561290657600080fd5b600061291485828601612707565b92505060206129258582860161271c565b9150509250929050565b6000806040838503121561294257600080fd5b600061295085828601612707565b925050602083013567ffffffffffffffff81111561296d57600080fd5b61297985828601612785565b9150509250929050565b6000806040838503121561299657600080fd5b60006129a485828601612707565b92505060206129b5858286016127af565b9150509250929050565b6000602082840312156129d157600080fd5b60006129df84828501612731565b91505092915050565b6000602082840312156129fa57600080fd5b6000612a0884828501612746565b91505092915050565b600060208284031215612a2357600080fd5b6000612a31848285016127af565b91505092915050565b612a4381613377565b82525050565b612a5281613389565b82525050565b6000612a6382613279565b612a6d818561328f565b9350612a7d8185602086016133fa565b612a86816135c6565b840191505092915050565b6000612a9c82613284565b612aa681856132a0565b9350612ab68185602086016133fa565b612abf816135c6565b840191505092915050565b6000612ad582613284565b612adf81856132b1565b9350612aef8185602086016133fa565b80840191505092915050565b6000612b08602b836132a0565b9150612b13826135d7565b604082019050919050565b6000612b2b6032836132a0565b9150612b3682613626565b604082019050919050565b6000612b4e6026836132a0565b9150612b5982613675565b604082019050919050565b6000612b716025836132a0565b9150612b7c826136c4565b604082019050919050565b6000612b94601c836132a0565b9150612b9f82613713565b602082019050919050565b6000612bb76024836132a0565b9150612bc28261373c565b604082019050919050565b6000612bda6019836132a0565b9150612be58261378b565b602082019050919050565b6000612bfd602c836132a0565b9150612c08826137b4565b604082019050919050565b6000612c206038836132a0565b9150612c2b82613803565b604082019050919050565b6000612c43602a836132a0565b9150612c4e82613852565b604082019050919050565b6000612c666029836132a0565b9150612c71826138a1565b604082019050919050565b6000612c89602e836132a0565b9150612c94826138f0565b604082019050919050565b6000612cac6020836132a0565b9150612cb78261393f565b602082019050919050565b6000612ccf6019836132a0565b9150612cda82613968565b602082019050919050565b6000612cf26031836132a0565b9150612cfd82613991565b604082019050919050565b6000612d156017836132a0565b9150612d20826139e0565b602082019050919050565b6000612d38602c836132a0565b9150612d4382613a09565b604082019050919050565b6000612d5b6020836132a0565b9150612d6682613a58565b602082019050919050565b6000612d7e602f836132a0565b9150612d8982613a81565b604082019050919050565b6000612da16021836132a0565b9150612dac82613ad0565b604082019050919050565b6000612dc46024836132a0565b9150612dcf82613b1f565b604082019050919050565b6000612de76031836132a0565b9150612df282613b6e565b604082019050919050565b6000612e0a602c836132a0565b9150612e1582613bbd565b604082019050919050565b612e29816133e1565b82525050565b6000612e3b8285612aca565b9150612e478284612aca565b91508190509392505050565b6000602082019050612e686000830184612a3a565b92915050565b6000608082019050612e836000830187612a3a565b612e906020830186612a3a565b612e9d6040830185612e20565b8181036060830152612eaf8184612a58565b905095945050505050565b6000602082019050612ecf6000830184612a49565b92915050565b60006020820190508181036000830152612eef8184612a91565b905092915050565b60006020820190508181036000830152612f1081612afb565b9050919050565b60006020820190508181036000830152612f3081612b1e565b9050919050565b60006020820190508181036000830152612f5081612b41565b9050919050565b60006020820190508181036000830152612f7081612b64565b9050919050565b60006020820190508181036000830152612f9081612b87565b9050919050565b60006020820190508181036000830152612fb081612baa565b9050919050565b60006020820190508181036000830152612fd081612bcd565b9050919050565b60006020820190508181036000830152612ff081612bf0565b9050919050565b6000602082019050818103600083015261301081612c13565b9050919050565b6000602082019050818103600083015261303081612c36565b9050919050565b6000602082019050818103600083015261305081612c59565b9050919050565b6000602082019050818103600083015261307081612c7c565b9050919050565b6000602082019050818103600083015261309081612c9f565b9050919050565b600060208201905081810360008301526130b081612cc2565b9050919050565b600060208201905081810360008301526130d081612ce5565b9050919050565b600060208201905081810360008301526130f081612d08565b9050919050565b6000602082019050818103600083015261311081612d2b565b9050919050565b6000602082019050818103600083015261313081612d4e565b9050919050565b6000602082019050818103600083015261315081612d71565b9050919050565b6000602082019050818103600083015261317081612d94565b9050919050565b6000602082019050818103600083015261319081612db7565b9050919050565b600060208201905081810360008301526131b081612dda565b9050919050565b600060208201905081810360008301526131d081612dfd565b9050919050565b60006020820190506131ec6000830184612e20565b92915050565b60006131fc61320d565b9050613208828261345f565b919050565b6000604051905090565b600067ffffffffffffffff82111561323257613231613597565b5b61323b826135c6565b9050602081019050919050565b600067ffffffffffffffff82111561326357613262613597565b5b61326c826135c6565b9050602081019050919050565b600081519050919050565b600081519050919050565b600082825260208201905092915050565b600082825260208201905092915050565b600081905092915050565b60006132c7826133e1565b91506132d2836133e1565b9250827fffffffffffffffffffffffffffffffffffffffffffffffffffffffffffffffff038211156133075761330661350a565b5b828201905092915050565b600061331d826133e1565b9150613328836133e1565b92508261333857613337613539565b5b828204905092915050565b600061334e826133e1565b9150613359836133e1565b92508282101561336c5761336b61350a565b5b828203905092915050565b6000613382826133c1565b9050919050565b60008115159050919050565b60007fffffffff0000000000000000000000000000000000000000000000000000000082169050919050565b600073ffffffffffffffffffffffffffffffffffffffff82169050919050565b6000819050919050565b82818337600083830152505050565b60005b838110156134185780820151818401526020810190506133fd565b83811115613427576000848401525b50505050565b6000600282049050600182168061344557607f821691505b6020821081141561345957613458613568565b5b50919050565b613468826135c6565b810181811067ffffffffffffffff8211171561348757613486613597565b5b80604052505050565b600061349b826133e1565b91507fffffffffffffffffffffffffffffffffffffffffffffffffffffffffffffffff8214156134ce576134cd61350a565b5b600182019050919050565b60006134e4826133e1565b91506134ef836133e1565b9250826134ff576134fe613539565b5b828206905092915050565b7f4e487b7100000000000000000000000000000000000000000000000000000000600052601160045260246000fd5b7f4e487b7100000000000000000000000000000000000000000000000000000000600052601260045260246000fd5b7f4e487b7100000000000000000000000000000000000000000000000000000000600052602260045260246000fd5b7f4e487b7100000000000000000000000000000000000000000000000000000000600052604160045260246000fd5b6000601f19601f8301169050919050565b7f455243373231456e756d657261626c653a206f776e657220696e646578206f7560008201527f74206f6620626f756e6473000000000000000000000000000000000000000000602082015250565b7f4552433732313a207472616e7366657220746f206e6f6e20455243373231526560008201527f63656976657220696d706c656d656e7465720000000000000000000000000000602082015250565b7f4f776e61626c653a206e6577206f776e657220697320746865207a65726f206160008201527f6464726573730000000000000000000000000000000000000000000000000000602082015250565b7f4552433732313a207472616e736665722066726f6d20696e636f72726563742060008201527f6f776e6572000000000000000000000000000000000000000000000000000000602082015250565b7f4552433732313a20746f6b656e20616c7265616479206d696e74656400000000600082015250565b7f4552433732313a207472616e7366657220746f20746865207a65726f2061646460008201527f7265737300000000000000000000000000000000000000000000000000000000602082015250565b7f4552433732313a20617070726f766520746f2063616c6c657200000000000000600082015250565b7f4552433732313a206f70657261746f7220717565727920666f72206e6f6e657860008201527f697374656e7420746f6b656e0000000000000000000000000000000000000000602082015250565b7f4552433732313a20617070726f76652063616c6c6572206973206e6f74206f7760008201527f6e6572206e6f7220617070726f76656420666f7220616c6c0000000000000000602082015250565b7f4552433732313a2062616c616e636520717565727920666f7220746865207a6560008201527f726f206164647265737300000000000000000000000000000000000000000000602082015250565b7f4552433732313a206f776e657220717565727920666f72206e6f6e657869737460008201527f656e7420746f6b656e0000000000000000000000000000000000000000000000602082015250565b7f45524337323155524953746f726167653a2055524920736574206f66206e6f6e60008201527f6578697374656e7420746f6b656e000000000000000000000000000000000000602082015250565b7f4552433732313a206d696e7420746f20746865207a65726f2061646472657373600082015250565b7f536f727279206d617820737570706c7920726561636865642e00000000000000600082015250565b7f45524337323155524953746f726167653a2055524920717565727920666f722060008201527f6e6f6e6578697374656e7420746f6b656e000000000000000000000000000000602082015250565b7f42616c616e63652069732063757272656e746c7920302e000000000000000000600082015250565b7f4552433732313a20617070726f76656420717565727920666f72206e6f6e657860008201527f697374656e7420746f6b656e0000000000000000000000000000000000000000602082015250565b7f4f776e61626c653a2063616c6c6572206973206e6f7420746865206f776e6572600082015250565b7f4552433732314d657461646174613a2055524920717565727920666f72206e6f60008201527f6e6578697374656e7420746f6b656e0000000000000000000000000000000000602082015250565b7f4552433732313a20617070726f76616c20746f2063757272656e74206f776e6560008201527f7200000000000000000000000000000000000000000000000000000000000000602082015250565b7f4e6f7420656e6f75676820657468657220746f20636f766572206d696e74207260008201527f6174652e00000000000000000000000000000000000000000000000000000000602082015250565b7f4552433732313a207472616e736665722063616c6c6572206973206e6f74206f60008201527f776e6572206e6f7220617070726f766564000000000000000000000000000000602082015250565b7f455243373231456e756d657261626c653a20676c6f62616c20696e646578206f60008201527f7574206f6620626f756e64730000000000000000000000000000000000000000602082015250565b613c1581613377565b8114613c2057600080fd5b50565b613c2c81613389565b8114613c3757600080fd5b50565b613c4381613395565b8114613c4e57600080fd5b50565b613c5a816133e1565b8114613c6557600080fd5b5056fea264697066735822122060bbaf8dd9c989b15779c1f41e46084beac3e0611964b5c99462fd3be159c2cf64736f6c63430008040033",
    "linkReferences": {},
    "deployedLinkReferences": {}
}